:100000000C9461000C947E000C947E000C947E0095
:100010000C947E000C947E000C947E000C947E0068
:100020000C947E000C947E000C947E000C947E0058
:100030000C947E000C947E000C947E000C947E0048
:100040000C94A8020C947E000C947E000C947E000C
:100050000C947E000C947E000C947E000C947E0028
:100060000C947E000C947E00000000002400270009
:100070002A0000000000250028002B0000000000DE
:1000800023002600290004040404040404040202DA
:100090000202020203030303030301020408102007
:1000A0004080010204081020010204081020000012
:1000B0000007000201000003040600000000000029
:1000C000000011241FBECFEFD8E0DEBFCDBF11E08E
:1000D000A0E0B1E0E6E2F9E002C005900D92AE3199
:1000E000B107D9F711E0AEE1B1E001C01D92AB322A
:1000F000B107E1F70E948A040C9491040C9400006B
:1001000080910A0161E00E94E70380910C0161E0A7
:100110000E94E70380910E0161E00E94E703809155
:10012000100161E00E94E7038091120161E00E94EA
:10013000E7038091140160E00E94E70380911601BB
:1001400060E00E94E703609100017091010188273F
:1001500077FD8095982F0E942403809106010E94CC
:100160003B0490931F0180931E010197A1F480919D
:10017000080161E00E94E7036091020170910301B0
:10018000882777FD8095982F0E942403809108018D
:1001900060E00E94E70380910A0161E00E94E703AA
:1001A00080910C0160E00E94E70380910E0160E005
:1001B0000E94E7038091100160E00E94E7038091B4
:1001C000120160E00E94E7038091140160E00E9448
:1001D000E7038091160161E00E94E703609100014E
:1001E00070910101882777FD8095982F0E94240344
:1001F000809106010E943B0490931F0180931E0191
:100200000197A1F48091080161E00E94E7036091E9
:10021000040170910501882777FD8095982F0E9431
:1002200024038091080160E00E94E70380910A01A5
:1002300061E00E94E70380910C0160E00E94E70307
:1002400080910E0161E00E94E7038091100160E05F
:100250000E94E7038091120160E00E94E703809111
:10026000140160E00E94E7038091160160E00E94A3
:10027000E7036091000170910101882777FD809567
:10028000982F0E942403809106010E943B049093C2
:100290001F0180931E010197A1F48091080161E084
:1002A0000E94E7036091020170910301882777FDA6
:1002B0008095982F0E9424038091080160E00E949D
:1002C000E70380910A0160E00E94E70380910C013E
:1002D00060E00E94E70380910E0161E00E94E70365
:1002E0008091100161E00E94E7038091120161E0BA
:1002F0000E94E7038091140160E00E94E70380916F
:10030000160160E00E94E703609100017091010115
:10031000882777FD8095982F0E94240380910601FD
:100320000E943B0490931F0180931E010197A1F44A
:100330008091080161E00E94E703609104017091DF
:100340000501882777FD8095982F0E9424038091CE
:10035000080160E00E94E70380910A0160E00E94CA
:10036000E70380910C0160E00E94E70380910E0199
:1003700061E00E94E7038091100160E00E94E703C2
:100380008091120160E00E94E7038091140161E016
:100390000E94E7038091160160E00E94E7036091EC
:1003A000000170910101882777FD8095982F0E94A8
:1003B0002403809106010E943B0490931F018093C7
:1003C0001E010197A1F48091080161E00E94E703FA
:1003D0006091020170910301882777FD8095982F25
:1003E0000E9424038091080160E00E94E70380914D
:1003F0000A0160E00E94E70380910C0160E00E9426
:10040000E70380910E0160E00E94E70380911001F4
:1004100060E00E94E7038091120161E00E94E7031F
:100420008091140161E00E94E7038091160160E071
:100430000E94E7036091000170910101882777FD18
:100440008095982F0E942403809106010E943B040E
:1004500090931F0180931E010197A1F480910801E0
:1004600061E00E94E7036091040170910501882713
:1004700077FD8095982F0E9424038091080160E009
:100480000E94E7038091180160E00E94E7036091F9
:10049000000170910101882777FD8095982F0E94B7
:1004A00024038091180161E00E94E703609100013C
:1004B00070910101882777FD8095982F0E94240371
:1004C000089580910A0161E00E94C10380910C01AE
:1004D00061E00E94C10380910E0161E00E94C103AE
:1004E0008091100161E00E94C1038091120161E0DE
:1004F0000E94C1038091140161E00E94C1038091B8
:10050000160161E00E94C1038091180161E00E9420
:10051000C1038091060160E00E94C103809108013F
:1005200061E00E94C10380911A0161E00E94C10351
:1005300080911C0161E00E94C10380911A0161E079
:100540000E94E70380911C0160E00E94E703089588
:100550001F920F920FB60F9211242F933F938F93F8
:100560009F93AF93BF938091260190912701A09113
:100570002801B091290130912A010196A11DB11DD8
:10058000232F2D5F2D3720F02D570196A11DB11D72
:1005900020932A018093260190932701A09328019C
:1005A000B09329018091220190912301A09124010F
:1005B000B09125010196A11DB11D80932201909358
:1005C0002301A0932401B0932501BF91AF919F9186
:1005D0008F913F912F910F900FBE0F901F90189504
:1005E0008FB7F8942091260130912701409128017E
:1005F000509129018FBFB901CA0108959FB7F8949E
:100600002091220130912301409124015091250134
:1006100086B5A89B06C08F3F21F02F5F3F4F4F4FFD
:100620005F4F9FBF542F432F322F2227280F311D9A
:10063000411D511D82E0220F331F441F551F8A9513
:10064000D1F7B901CA0108959B01AC017FB7F894B5
:100650008091220190912301A0912401B091250164
:1006600066B5A89B05C06F3F19F00196A11DB11D8D
:100670007FBFBA2FA92F982F8827860F911DA11D04
:10068000B11D62E0880F991FAA1FBB1F6A95D1F7A1
:10069000BC012DC0FFB7F8948091220190912301F5
:1006A000A0912401B0912501E6B5A89B05C0EF3FBC
:1006B00019F00196A11DB11DFFBFBA2FA92F982FC8
:1006C00088278E0F911DA11DB11DE2E0880F991F93
:1006D000AA1FBB1FEA95D1F7861B970B885E934034
:1006E000C8F2215030404040504068517C4F2115A5
:1006F00031054105510571F60895019739F0880FCC
:10070000991F880F991F02970197F1F70895789420
:1007100084B5826084BD84B5816084BD85B5826006
:1007200085BD85B5816085BDEEE6F0E080818160A4
:100730008083E1E8F0E08081826080838081816055
:100740008083E0E8F0E0808181608083E1EBF0E08D
:10075000808184608083E0EBF0E080818160808331
:10076000EAE7F0E08081846080838081826080831A
:100770008081816080838081806880831092C10045
:100780000895482F50E0CA0186569F4FFC012491DE
:100790004A575F4FFA0184918823C1F0E82FF0E0B7
:1007A000EE0FFF1FE859FF4FA591B491662341F466
:1007B0009FB7F8948C91209582238C939FBF0895C6
:1007C0009FB7F8948C91822B8C939FBF0895482FEC
:1007D00050E0CA0182559F4FFC012491CA01865600
:1007E0009F4FFC0134914A575F4FFA01949199232E
:1007F00009F440C0222331F1233021F4809180009C
:100800008F7705C0243031F4809180008F7D8093F4
:10081000800018C0213019F484B58F7704C02230CD
:1008200021F484B58F7D84BD0DC0263021F48091E4
:10083000B0008F7705C0273029F48091B0008F7DFC
:100840008093B000E92FF0E0EE0FFF1FEE58FF4F4E
:10085000A591B491662341F49FB7F8948C9130959B
:1008600083238C939FBF08959FB7F8948C91832B1B
:100870008C939FBF0895682F70E0CB0182559F4FE6
:10088000FC012491CB0186569F4FFC0144916A578D
:100890007F4FFB019491992319F420E030E038C098
:1008A000222331F1233021F4809180008F7705C01D
:1008B000243031F4809180008F7D8093800018C0B7
:1008C000213019F484B58F7704C0223021F484B527
:1008D0008F7D84BD0DC0263021F48091B0008F77CC
:1008E00005C0273029F48091B0008F7D8093B0003F
:1008F000892F90E0880F991F84589F4FFC01A59184
:10090000B4918C9120E030E0842311F021E030E0BC
:10091000C90108950E9487030E9461020E9480001D
:06092000FDCFF894FFCFAB
:10092600C800E803B80B030005000B000C000A0022
:0E09360009000600070008000D000200040082
:00000001FF
