:100000000C9461000C947E000C947E000C947E0095
:100010000C947E000C947E000C947E000C947E0068
:100020000C947E000C947E000C947E000C947E0058
:100030000C947E000C947E000C947E000C947E0048
:100040000C94B2020C947E000C947E000C947E0002
:100050000C947E000C947E000C947E000C947E0028
:100060000C947E000C947E00000000002400270009
:100070002A0000000000250028002B0000000000DE
:1000800023002600290004040404040404040202DA
:100090000202020203030303030301020408102007
:1000A0004080010204081020010204081020000012
:1000B0000007000201000003040600000000000029
:1000C000000011241FBECFEFD8E0DEBFCDBF11E08E
:1000D000A0E0B1E0EAE3F9E002C005900D92A6319C
:1000E000B107D9F711E0A6E1B1E001C01D92AF312F
:1000F000B107E1F70E9494040C949B040C94000057
:100100008091020160E00E94F1038091040160E0AF
:100110000E94F1038091060160E00E94F10380914A
:10012000080160E00E94F10380910A0160E00E94F2
:10013000F10380910C0161E00E94F10380910E01B6
:1001400061E00E94F1038091100161E00E94F103DF
:100150006091000170910101882777FD8095982FAB
:100160000E942E038091020160E00E94F1038091C1
:10017000040161E00E94F1038091060161E00E94A8
:10018000F1038091080161E00E94F10380910A016E
:1001900061E00E94F10380910C0161E00E94F10393
:1001A00080910E0160E00E94F1038091100160E0F7
:1001B0000E94F1036091000170910101882777FD91
:1001C0008095982F0E942E038091020160E00E948A
:1001D000F1038091040161E00E94F1038091060126
:1001E00060E00E94F1038091080161E00E94F10348
:1001F00080910A0161E00E94F10380910C0161E0AD
:100200000E94F10380910E0161E00E94F103809150
:10021000100161E00E94F103609100017091010101
:10022000882777FD8095982F0E942E0380910201E8
:1002300061E00E94F1038091040161E00E94F103FA
:100240008091060160E00E94F1038091080160E066
:100250000E94F10380910A0160E00E94F103809105
:100260000C0161E00E94F10380910E0161E00E94A7
:10027000F1038091100160E00E94F10360910001A0
:1002800070910101882777FD8095982F0E942E0399
:100290008091020161E00E94F1038091040161E01C
:1002A0000E94F1038091060160E00E94F1038091B9
:1002B000080161E00E94F10380910A0161E00E945F
:1002C000F10380910C0160E00E94F10380910E0126
:1002D00061E00E94F1038091100161E00E94F1034E
:1002E0006091000170910101882777FD8095982F1A
:1002F0000E942E038091020161E00E94F10380912F
:10030000040161E00E94F1038091060161E00E9416
:10031000F1038091080161E00E94F10380910A01DC
:1003200060E00E94F10380910C0160E00E94F10303
:1003300080910E0161E00E94F1038091100160E064
:100340000E94F1036091000170910101882777FDFF
:100350008095982F0E942E038091020160E00E94F8
:10036000F1038091040160E00E94F1038091060195
:1003700060E00E94F1038091080160E00E94F103B7
:1003800080910A0161E00E94F10380910C0161E01B
:100390000E94F10380910E0161E00E94F1038091BF
:1003A000100161E00E94F103609100017091010170
:1003B000882777FD8095982F0E942E038091020157
:1003C00061E00E94F1038091040161E00E94F10369
:1003D0008091060161E00E94F1038091080161E0D3
:1003E0000E94F10380910A0161E00E94F103809173
:1003F0000C0161E00E94F10380910E0161E00E9416
:10040000F1038091100160E00E94F103609100010E
:1004100070910101882777FD8095982F0E942E0307
:100420008091020161E00E94F1038091040161E08A
:100430000E94F1038091060160E00E94F103809127
:10044000080160E00E94F10380910A0161E00E94CE
:10045000F10380910C0161E00E94F10380910E0193
:1004600061E00E94F1038091100161E00E94F103BC
:100470006091000170910101882777FD8095982F88
:100480000E942E038091020161E00E94F10380919D
:10049000040160E00E94F1038091060161E00E9486
:1004A000F1038091080161E00E94F10380910A014B
:1004B00061E00E94F10380910C0161E00E94F10370
:1004C00080910E0161E00E94F1038091100160E0D3
:1004D0000E94F1036091000170910101882777FD6E
:1004E0008095982F0E942E0308958091120161E05B
:1004F0000E94CB038091140161E00E94CB038091A4
:10050000120161E00E94F1038091140160E00E94F9
:10051000F1038091020161E00E94CB03809104010C
:1005200061E00E94CB038091060161E00E94CB0351
:100530008091080161E00E94CB0380910A0161E093
:100540000E94CB0380910C0161E00E94CB0380915B
:100550000E0161E00E94CB038091100161E00E94D6
:10056000CB0308951F920F920FB60F9211242F9371
:100570003F938F939F93AF93BF9380911A01909174
:100580001B01A0911C01B0911D0130911E0101962B
:10059000A11DB11D232F2D5F2D3720F02D57019662
:1005A000A11DB11D20931E0180931A0190931B0180
:1005B000A0931C01B0931D01809116019091170129
:1005C000A0911801B09119010196A11DB11D809350
:1005D000160190931701A0931801B0931901BF91D0
:1005E000AF919F918F913F912F910F900FBE0F90E0
:1005F0001F9018958FB7F89420911A0130911B0124
:1006000040911C0150911D018FBFB901CA0108958D
:100610009FB7F8942091160130911701409118016D
:100620005091190186B5A89B06C08F3F21F02F5F1E
:100630003F4F4F4F5F4F9FBF542F432F322F2227E3
:10064000280F311D411D511D82E0220F331F441F11
:10065000551F8A95D1F7B901CA0108959B01AC01D4
:100660007FB7F8948091160190911701A09118011D
:10067000B091190166B5A89B05C06F3F19F00196AE
:10068000A11DB11D7FBFBA2FA92F982F8827860FD4
:10069000911DA11DB11D62E0880F991FAA1FBB1FEC
:1006A0006A95D1F7BC012DC0FFB7F894809116016F
:1006B00090911701A0911801B0911901E6B5A89B7E
:1006C00005C0EF3F19F00196A11DB11DFFBFBA2F64
:1006D000A92F982F88278E0F911DA11DB11DE2E033
:1006E000880F991FAA1FBB1FEA95D1F7861B970B8E
:1006F000885E9340C8F221503040404050406851DD
:100700007C4F211531054105510571F6089501977A
:1007100039F0880F991F880F991F02970197F1F7F9
:100720000895789484B5826084BD84B5816084BD69
:1007300085B5826085BD85B5816085BDEEE6F0E05A
:10074000808181608083E1E8F0E080818260808345
:10075000808181608083E0E8F0E080818160808337
:10076000E1EBF0E0808184608083E0EBF0E0808169
:1007700081608083EAE7F0E080818460808380810B
:1007800082608083808181608083808180688083B3
:100790001092C1000895482F50E0CA0186569F4F1D
:1007A000FC0124914A575F4FFA0184918823C1F0DC
:1007B000E82FF0E0EE0FFF1FE859FF4FA591B4912D
:1007C000662341F49FB7F8948C91209582238C93F3
:1007D0009FBF08959FB7F8948C91822B8C939FBFF5
:1007E0000895482F50E0CA0182559F4FFC01249183
:1007F000CA0186569F4FFC0134914A575F4FFA0158
:100800009491992309F440C0222331F1233021F43B
:10081000809180008F7705C0243031F48091800072
:100820008F7D8093800018C0213019F484B58F77B4
:1008300004C0223021F484B58F7D84BD0DC02630E4
:1008400021F48091B0008F7705C0273029F4809182
:10085000B0008F7D8093B000E92FF0E0EE0FFF1F16
:10086000EE58FF4FA591B491662341F49FB7F894D9
:100870008C91309583238C939FBF08959FB7F894F4
:100880008C91832B8C939FBF0895682F70E0CB01D0
:1008900082559F4FFC012491CB0186569F4FFC014E
:1008A00044916A577F4FFB019491992319F420E0FA
:1008B00030E038C0222331F1233021F480918000D0
:1008C0008F7705C0243031F4809180008F7D809334
:1008D000800018C0213019F484B58F7704C022300D
:1008E00021F484B58F7D84BD0DC0263021F4809124
:1008F000B0008F7705C0273029F48091B0008F7D3C
:100900008093B000892F90E0880F991F84589F4FE3
:10091000FC01A591B4918C9120E030E0842311F08A
:1009200021E030E0C90108950E9491030E94750200
:0A0930000E948000FDCFF894FFCF75
:10093A00D007070006000D000C00080009000B0094
:06094A000A000200040097
:00000001FF
